{
	"Lottery.sol": {
		"Lottery": {
			"abi": [
				{
					"inputs": [],
					"stateMutability": "nonpayable",
					"type": "constructor"
				},
				{
					"inputs": [],
					"name": "getBalance",
					"outputs": [
						{
							"internalType": "uint256",
							"name": "",
							"type": "uint256"
						}
					],
					"stateMutability": "view",
					"type": "function"
				},
				{
					"inputs": [],
					"name": "manager",
					"outputs": [
						{
							"internalType": "address",
							"name": "",
							"type": "address"
						}
					],
					"stateMutability": "view",
					"type": "function"
				},
				{
					"inputs": [],
					"name": "participate",
					"outputs": [],
					"stateMutability": "payable",
					"type": "function"
				},
				{
					"inputs": [],
					"name": "pickWinner",
					"outputs": [],
					"stateMutability": "nonpayable",
					"type": "function"
				},
				{
					"inputs": [
						{
							"internalType": "uint256",
							"name": "",
							"type": "uint256"
						}
					],
					"name": "players",
					"outputs": [
						{
							"internalType": "address payable",
							"name": "",
							"type": "address"
						}
					],
					"stateMutability": "view",
					"type": "function"
				},
				{
					"inputs": [],
					"name": "winner",
					"outputs": [
						{
							"internalType": "address payable",
							"name": "",
							"type": "address"
						}
					],
					"stateMutability": "view",
					"type": "function"
				}
			],
			"devdoc": {
				"kind": "dev",
				"methods": {},
				"version": 1
			},
			"evm": {
				"assembly": "    /* \"Lottery.sol\":68:1983  contract Lottery {... */\n  mstore(0x40, 0x80)\n    /* \"Lottery.sol\":337:387  constructor(){... */\n  callvalue\n  dup1\n  iszero\n  tag_1\n  jumpi\n  0x00\n  dup1\n  revert\ntag_1:\n  pop\n    /* \"Lottery.sol\":369:379  msg.sender */\n  caller\n    /* \"Lottery.sol\":361:368  manager */\n  0x00\n  dup1\n    /* \"Lottery.sol\":361:379  manager=msg.sender */\n  0x0100\n  exp\n  dup2\n  sload\n  dup2\n  0xffffffffffffffffffffffffffffffffffffffff\n  mul\n  not\n  and\n  swap1\n  dup4\n  0xffffffffffffffffffffffffffffffffffffffff\n  and\n  mul\n  or\n  swap1\n  sstore\n  pop\n    /* \"Lottery.sol\":68:1983  contract Lottery {... */\n  dataSize(sub_0)\n  dup1\n  dataOffset(sub_0)\n  0x00\n  codecopy\n  0x00\n  return\nstop\n\nsub_0: assembly {\n        /* \"Lottery.sol\":68:1983  contract Lottery {... */\n      mstore(0x40, 0x80)\n      jumpi(tag_1, lt(calldatasize, 0x04))\n      shr(0xe0, calldataload(0x00))\n      dup1\n      0x12065fe0\n      eq\n      tag_2\n      jumpi\n      dup1\n      0x481c6a75\n      eq\n      tag_3\n      jumpi\n      dup1\n      0x5d495aea\n      eq\n      tag_4\n      jumpi\n      dup1\n      0xd11711a2\n      eq\n      tag_5\n      jumpi\n      dup1\n      0xdfbf53ae\n      eq\n      tag_6\n      jumpi\n      dup1\n      0xf71d96cb\n      eq\n      tag_7\n      jumpi\n    tag_1:\n      0x00\n      dup1\n      revert\n        /* \"Lottery.sol\":911:1258  function getBalance() public view returns(uint){ //to check the amount of ether that has been deposited and return a random number... */\n    tag_2:\n      callvalue\n      dup1\n      iszero\n      tag_8\n      jumpi\n      0x00\n      dup1\n      revert\n    tag_8:\n      pop\n      tag_9\n      tag_10\n      jump\t// in\n    tag_9:\n      mload(0x40)\n      tag_11\n      swap2\n      swap1\n      tag_12\n      jump\t// in\n    tag_11:\n      mload(0x40)\n      dup1\n      swap2\n      sub\n      swap1\n      return\n        /* \"Lottery.sol\":147:169  address public manager */\n    tag_3:\n      callvalue\n      dup1\n      iszero\n      tag_13\n      jumpi\n      0x00\n      dup1\n      revert\n    tag_13:\n      pop\n      tag_14\n      tag_15\n      jump\t// in\n    tag_14:\n      mload(0x40)\n      tag_16\n      swap2\n      swap1\n      tag_17\n      jump\t// in\n    tag_16:\n      mload(0x40)\n      dup1\n      swap2\n      sub\n      swap1\n      return\n        /* \"Lottery.sol\":1575:1980  function pickWinner() public { //this function is use to pick winner random... */\n    tag_4:\n      callvalue\n      dup1\n      iszero\n      tag_18\n      jumpi\n      0x00\n      dup1\n      revert\n    tag_18:\n      pop\n      tag_19\n      tag_20\n      jump\t// in\n    tag_19:\n      stop\n        /* \"Lottery.sol\":548:903  function participate() public payable{ //payable because the players would have to pay 1 ether.... */\n    tag_5:\n      tag_21\n      tag_22\n      jump\t// in\n    tag_21:\n      stop\n        /* \"Lottery.sol\":215:244  address payable public winner */\n    tag_6:\n      callvalue\n      dup1\n      iszero\n      tag_23\n      jumpi\n      0x00\n      dup1\n      revert\n    tag_23:\n      pop\n      tag_24\n      tag_25\n      jump\t// in\n    tag_24:\n      mload(0x40)\n      tag_26\n      swap2\n      swap1\n      tag_27\n      jump\t// in\n    tag_26:\n      mload(0x40)\n      dup1\n      swap2\n      sub\n      swap1\n      return\n        /* \"Lottery.sol\":176:208  address payable[] public players */\n    tag_7:\n      callvalue\n      dup1\n      iszero\n      tag_28\n      jumpi\n      0x00\n      dup1\n      revert\n    tag_28:\n      pop\n      tag_29\n      0x04\n      dup1\n      calldatasize\n      sub\n      dup2\n      add\n      swap1\n      tag_30\n      swap2\n      swap1\n      tag_31\n      jump\t// in\n    tag_30:\n      tag_32\n      jump\t// in\n    tag_29:\n      mload(0x40)\n      tag_33\n      swap2\n      swap1\n      tag_27\n      jump\t// in\n    tag_33:\n      mload(0x40)\n      dup1\n      swap2\n      sub\n      swap1\n      return\n        /* \"Lottery.sol\":911:1258  function getBalance() public view returns(uint){ //to check the amount of ether that has been deposited and return a random number... */\n    tag_10:\n        /* \"Lottery.sol\":953:957  uint */\n      0x00\n        /* \"Lottery.sol\":1068:1078  msg.sender */\n      caller\n        /* \"Lottery.sol\":1059:1078  manager==msg.sender */\n      0xffffffffffffffffffffffffffffffffffffffff\n      and\n        /* \"Lottery.sol\":1059:1066  manager */\n      0x00\n      dup1\n      sload\n      swap1\n      0x0100\n      exp\n      swap1\n      div\n      0xffffffffffffffffffffffffffffffffffffffff\n      and\n        /* \"Lottery.sol\":1059:1078  manager==msg.sender */\n      0xffffffffffffffffffffffffffffffffffffffff\n      and\n      eq\n        /* \"Lottery.sol\":1051:1106  require(manager==msg.sender, \"You are not the manager\") */\n      tag_35\n      jumpi\n      mload(0x40)\n      0x08c379a000000000000000000000000000000000000000000000000000000000\n      dup2\n      mstore\n      0x04\n      add\n      tag_36\n      swap1\n      tag_37\n      jump\t// in\n    tag_36:\n      mload(0x40)\n      dup1\n      swap2\n      sub\n      swap1\n      revert\n    tag_35:\n        /* \"Lottery.sol\":1186:1207  address(this).balance */\n      selfbalance\n        /* \"Lottery.sol\":1179:1207  return address(this).balance */\n      swap1\n      pop\n        /* \"Lottery.sol\":911:1258  function getBalance() public view returns(uint){ //to check the amount of ether that has been deposited and return a random number... */\n      swap1\n      jump\t// out\n        /* \"Lottery.sol\":147:169  address public manager */\n    tag_15:\n      0x00\n      dup1\n      sload\n      swap1\n      0x0100\n      exp\n      swap1\n      div\n      0xffffffffffffffffffffffffffffffffffffffff\n      and\n      dup2\n      jump\t// out\n        /* \"Lottery.sol\":1575:1980  function pickWinner() public { //this function is use to pick winner random... */\n    tag_20:\n        /* \"Lottery.sol\":1677:1687  msg.sender */\n      caller\n        /* \"Lottery.sol\":1668:1687  manager==msg.sender */\n      0xffffffffffffffffffffffffffffffffffffffff\n      and\n        /* \"Lottery.sol\":1668:1675  manager */\n      0x00\n      dup1\n      sload\n      swap1\n      0x0100\n      exp\n      swap1\n      div\n      0xffffffffffffffffffffffffffffffffffffffff\n      and\n        /* \"Lottery.sol\":1668:1687  manager==msg.sender */\n      0xffffffffffffffffffffffffffffffffffffffff\n      and\n      eq\n        /* \"Lottery.sol\":1660:1714  require(manager==msg.sender, \"You're not the manager\") */\n      tag_39\n      jumpi\n      mload(0x40)\n      0x08c379a000000000000000000000000000000000000000000000000000000000\n      dup2\n      mstore\n      0x04\n      add\n      tag_40\n      swap1\n      tag_41\n      jump\t// in\n    tag_40:\n      mload(0x40)\n      dup1\n      swap2\n      sub\n      swap1\n      revert\n    tag_39:\n        /* \"Lottery.sol\":1749:1750  3 */\n      0x03\n        /* \"Lottery.sol\":1733:1740  players */\n      0x01\n        /* \"Lottery.sol\":1733:1747  players.length */\n      dup1\n      sload\n      swap1\n      pop\n        /* \"Lottery.sol\":1733:1750  players.length>=3 */\n      lt\n      iszero\n        /* \"Lottery.sol\":1725:1778  require(players.length>=3, \"Players are less than 3\") */\n      tag_42\n      jumpi\n      mload(0x40)\n      0x08c379a000000000000000000000000000000000000000000000000000000000\n      dup2\n      mstore\n      0x04\n      add\n      tag_43\n      swap1\n      tag_44\n      jump\t// in\n    tag_43:\n      mload(0x40)\n      dup1\n      swap2\n      sub\n      swap1\n      revert\n    tag_42:\n        /* \"Lottery.sol\":1791:1797  uint r */\n      0x00\n        /* \"Lottery.sol\":1798:1806  random() */\n      tag_45\n        /* \"Lottery.sol\":1798:1804  random */\n      tag_46\n        /* \"Lottery.sol\":1798:1806  random() */\n      jump\t// in\n    tag_45:\n        /* \"Lottery.sol\":1791:1806  uint r=random() */\n      swap1\n      pop\n        /* \"Lottery.sol\":1817:1827  uint index */\n      0x00\n        /* \"Lottery.sol\":1832:1839  players */\n      0x01\n        /* \"Lottery.sol\":1832:1846  players.length */\n      dup1\n      sload\n      swap1\n      pop\n        /* \"Lottery.sol\":1830:1831  r */\n      dup3\n        /* \"Lottery.sol\":1830:1846  r%players.length */\n      tag_47\n      swap2\n      swap1\n      tag_48\n      jump\t// in\n    tag_47:\n        /* \"Lottery.sol\":1817:1846  uint index = r%players.length */\n      swap1\n      pop\n        /* \"Lottery.sol\":1864:1871  players */\n      0x01\n        /* \"Lottery.sol\":1872:1877  index */\n      dup2\n        /* \"Lottery.sol\":1864:1878  players[index] */\n      dup2\n      sload\n      dup2\n      lt\n      tag_49\n      jumpi\n      tag_50\n      tag_51\n      jump\t// in\n    tag_50:\n    tag_49:\n      swap1\n      0x00\n      mstore\n      keccak256(0x00, 0x20)\n      add\n      0x00\n      swap1\n      sload\n      swap1\n      0x0100\n      exp\n      swap1\n      div\n      0xffffffffffffffffffffffffffffffffffffffff\n      and\n        /* \"Lottery.sol\":1857:1863  winner */\n      0x02\n      0x00\n        /* \"Lottery.sol\":1857:1878  winner=players[index] */\n      0x0100\n      exp\n      dup2\n      sload\n      dup2\n      0xffffffffffffffffffffffffffffffffffffffff\n      mul\n      not\n      and\n      swap1\n      dup4\n      0xffffffffffffffffffffffffffffffffffffffff\n      and\n      mul\n      or\n      swap1\n      sstore\n      pop\n        /* \"Lottery.sol\":1889:1895  winner */\n      0x02\n      0x00\n      swap1\n      sload\n      swap1\n      0x0100\n      exp\n      swap1\n      div\n      0xffffffffffffffffffffffffffffffffffffffff\n      and\n        /* \"Lottery.sol\":1889:1904  winner.transfer */\n      0xffffffffffffffffffffffffffffffffffffffff\n      and\n        /* \"Lottery.sol\":1889:1918  winner.transfer(getBalance()) */\n      0x08fc\n        /* \"Lottery.sol\":1905:1917  getBalance() */\n      tag_53\n        /* \"Lottery.sol\":1905:1915  getBalance */\n      tag_10\n        /* \"Lottery.sol\":1905:1917  getBalance() */\n      jump\t// in\n    tag_53:\n        /* \"Lottery.sol\":1889:1918  winner.transfer(getBalance()) */\n      swap1\n      dup2\n      iszero\n      mul\n      swap1\n      mload(0x40)\n      0x00\n      mload(0x40)\n      dup1\n      dup4\n      sub\n      dup2\n      dup6\n      dup9\n      dup9\n      call\n      swap4\n      pop\n      pop\n      pop\n      pop\n      iszero\n      dup1\n      iszero\n      tag_55\n      jumpi\n      returndatasize\n      0x00\n      dup1\n      returndatacopy\n      revert(0x00, returndatasize)\n    tag_55:\n      pop\n        /* \"Lottery.sol\":1960:1961  0 */\n      0x00\n        /* \"Lottery.sol\":1938:1962  new address payable[](0) */\n      0xffffffffffffffff\n      dup2\n      gt\n      iszero\n      tag_56\n      jumpi\n      tag_57\n      tag_58\n      jump\t// in\n    tag_57:\n    tag_56:\n      mload(0x40)\n      swap1\n      dup1\n      dup3\n      mstore\n      dup1\n      0x20\n      mul\n      0x20\n      add\n      dup3\n      add\n      0x40\n      mstore\n      dup1\n      iszero\n      tag_59\n      jumpi\n      dup2\n      0x20\n      add\n      0x20\n      dup3\n      mul\n      dup1\n      calldatasize\n      dup4\n      calldatacopy\n      dup1\n      dup3\n      add\n      swap2\n      pop\n      pop\n      swap1\n      pop\n    tag_59:\n      pop\n        /* \"Lottery.sol\":1929:1936  players */\n      0x01\n        /* \"Lottery.sol\":1929:1962  players= new address payable[](0) */\n      swap1\n      dup1\n      mload\n      swap1\n      0x20\n      add\n      swap1\n      tag_60\n      swap3\n      swap2\n      swap1\n      tag_61\n      jump\t// in\n    tag_60:\n      pop\n        /* \"Lottery.sol\":1604:1980  { //this function is use to pick winner random... */\n      pop\n      pop\n        /* \"Lottery.sol\":1575:1980  function pickWinner() public { //this function is use to pick winner random... */\n      jump\t// out\n        /* \"Lottery.sol\":548:903  function participate() public payable{ //payable because the players would have to pay 1 ether.... */\n    tag_22:\n        /* \"Lottery.sol\":672:679  1 ether */\n      0x0de0b6b3a7640000\n        /* \"Lottery.sol\":661:670  msg.value */\n      callvalue\n        /* \"Lottery.sol\":661:679  msg.value==1 ether */\n      eq\n        /* \"Lottery.sol\":653:710  require(msg.value==1 ether, \"Please pay up 1 ether only\") */\n      tag_63\n      jumpi\n      mload(0x40)\n      0x08c379a000000000000000000000000000000000000000000000000000000000\n      dup2\n      mstore\n      0x04\n      add\n      tag_64\n      swap1\n      tag_65\n      jump\t// in\n    tag_64:\n      mload(0x40)\n      dup1\n      swap2\n      sub\n      swap1\n      revert\n    tag_63:\n        /* \"Lottery.sol\":742:749  players */\n      0x01\n        /* \"Lottery.sol\":764:774  msg.sender */\n      caller\n        /* \"Lottery.sol\":742:776  players.push(payable (msg.sender)) */\n      swap1\n      dup1\n      0x01\n      dup2\n      sload\n      add\n      dup1\n      dup3\n      sstore\n      dup1\n      swap2\n      pop\n      pop\n      0x01\n      swap1\n      sub\n      swap1\n      0x00\n      mstore\n      keccak256(0x00, 0x20)\n      add\n      0x00\n      swap1\n      swap2\n      swap1\n      swap2\n      swap1\n      swap2\n      0x0100\n      exp\n      dup2\n      sload\n      dup2\n      0xffffffffffffffffffffffffffffffffffffffff\n      mul\n      not\n      and\n      swap1\n      dup4\n      0xffffffffffffffffffffffffffffffffffffffff\n      and\n      mul\n      or\n      swap1\n      sstore\n      pop\n        /* \"Lottery.sol\":548:903  function participate() public payable{ //payable because the players would have to pay 1 ether.... */\n      jump\t// out\n        /* \"Lottery.sol\":215:244  address payable public winner */\n    tag_25:\n      0x02\n      0x00\n      swap1\n      sload\n      swap1\n      0x0100\n      exp\n      swap1\n      div\n      0xffffffffffffffffffffffffffffffffffffffff\n      and\n      dup2\n      jump\t// out\n        /* \"Lottery.sol\":176:208  address payable[] public players */\n    tag_32:\n      0x01\n      dup2\n      dup2\n      sload\n      dup2\n      lt\n      tag_67\n      jumpi\n      0x00\n      dup1\n      revert\n    tag_67:\n      swap1\n      0x00\n      mstore\n      keccak256(0x00, 0x20)\n      add\n      0x00\n      swap2\n      pop\n      sload\n      swap1\n      0x0100\n      exp\n      swap1\n      div\n      0xffffffffffffffffffffffffffffffffffffffff\n      and\n      dup2\n      jump\t// out\n        /* \"Lottery.sol\":1266:1469  function random() internal view returns(uint){ //this fuction is used to select a random winner.... */\n    tag_46:\n        /* \"Lottery.sol\":1306:1310  uint */\n      0x00\n        /* \"Lottery.sol\":1411:1427  block.prevrandao */\n      prevrandao\n        /* \"Lottery.sol\":1428:1443  block.timestamp */\n      timestamp\n        /* \"Lottery.sol\":1444:1451  players */\n      0x01\n        /* \"Lottery.sol\":1444:1458  players.length */\n      dup1\n      sload\n      swap1\n      pop\n        /* \"Lottery.sol\":1394:1459  abi.encodePacked(block.prevrandao,block.timestamp,players.length) */\n      add(0x20, mload(0x40))\n      tag_70\n      swap4\n      swap3\n      swap2\n      swap1\n      tag_71\n      jump\t// in\n    tag_70:\n      mload(0x40)\n      0x20\n      dup2\n      dup4\n      sub\n      sub\n      dup2\n      mstore\n      swap1\n      0x40\n      mstore\n        /* \"Lottery.sol\":1384:1460  keccak256(abi.encodePacked(block.prevrandao,block.timestamp,players.length)) */\n      dup1\n      mload\n      swap1\n      0x20\n      add\n      keccak256\n        /* \"Lottery.sol\":1379:1461  uint(keccak256(abi.encodePacked(block.prevrandao,block.timestamp,players.length))) */\n      0x00\n      shr\n        /* \"Lottery.sol\":1372:1461  return uint(keccak256(abi.encodePacked(block.prevrandao,block.timestamp,players.length))) */\n      swap1\n      pop\n        /* \"Lottery.sol\":1266:1469  function random() internal view returns(uint){ //this fuction is used to select a random winner.... */\n      swap1\n      jump\t// out\n    tag_61:\n      dup3\n      dup1\n      sload\n      dup3\n      dup3\n      sstore\n      swap1\n      0x00\n      mstore\n      keccak256(0x00, 0x20)\n      swap1\n      dup2\n      add\n      swap3\n      dup3\n      iszero\n      tag_72\n      jumpi\n      swap2\n      0x20\n      mul\n      dup3\n      add\n    tag_73:\n      dup3\n      dup2\n      gt\n      iszero\n      tag_74\n      jumpi\n      dup3\n      mload\n      dup3\n      exp(0x0100, 0x00)\n      dup2\n      sload\n      dup2\n      0xffffffffffffffffffffffffffffffffffffffff\n      mul\n      not\n      and\n      swap1\n      dup4\n      0xffffffffffffffffffffffffffffffffffffffff\n      and\n      mul\n      or\n      swap1\n      sstore\n      pop\n      swap2\n      0x20\n      add\n      swap2\n      swap1\n      0x01\n      add\n      swap1\n      jump(tag_73)\n    tag_74:\n    tag_72:\n      pop\n      swap1\n      pop\n      tag_75\n      swap2\n      swap1\n      tag_76\n      jump\t// in\n    tag_75:\n      pop\n      swap1\n      jump\t// out\n    tag_76:\n    tag_77:\n      dup1\n      dup3\n      gt\n      iszero\n      tag_78\n      jumpi\n      0x00\n      dup2\n      0x00\n      swap1\n      sstore\n      pop\n      0x01\n      add\n      jump(tag_77)\n    tag_78:\n      pop\n      swap1\n      jump\t// out\n        /* \"#utility.yul\":7:84   */\n    tag_79:\n        /* \"#utility.yul\":44:51   */\n      0x00\n        /* \"#utility.yul\":73:78   */\n      dup2\n        /* \"#utility.yul\":62:78   */\n      swap1\n      pop\n        /* \"#utility.yul\":7:84   */\n      swap2\n      swap1\n      pop\n      jump\t// out\n        /* \"#utility.yul\":90:208   */\n    tag_80:\n        /* \"#utility.yul\":177:201   */\n      tag_106\n        /* \"#utility.yul\":195:200   */\n      dup2\n        /* \"#utility.yul\":177:201   */\n      tag_79\n      jump\t// in\n    tag_106:\n        /* \"#utility.yul\":172:175   */\n      dup3\n        /* \"#utility.yul\":165:202   */\n      mstore\n        /* \"#utility.yul\":90:208   */\n      pop\n      pop\n      jump\t// out\n        /* \"#utility.yul\":214:436   */\n    tag_12:\n        /* \"#utility.yul\":307:311   */\n      0x00\n        /* \"#utility.yul\":345:347   */\n      0x20\n        /* \"#utility.yul\":334:343   */\n      dup3\n        /* \"#utility.yul\":330:348   */\n      add\n        /* \"#utility.yul\":322:348   */\n      swap1\n      pop\n        /* \"#utility.yul\":358:429   */\n      tag_108\n        /* \"#utility.yul\":426:427   */\n      0x00\n        /* \"#utility.yul\":415:424   */\n      dup4\n        /* \"#utility.yul\":411:428   */\n      add\n        /* \"#utility.yul\":402:408   */\n      dup5\n        /* \"#utility.yul\":358:429   */\n      tag_80\n      jump\t// in\n    tag_108:\n        /* \"#utility.yul\":214:436   */\n      swap3\n      swap2\n      pop\n      pop\n      jump\t// out\n        /* \"#utility.yul\":442:568   */\n    tag_81:\n        /* \"#utility.yul\":479:486   */\n      0x00\n        /* \"#utility.yul\":519:561   */\n      0xffffffffffffffffffffffffffffffffffffffff\n        /* \"#utility.yul\":512:517   */\n      dup3\n        /* \"#utility.yul\":508:562   */\n      and\n        /* \"#utility.yul\":497:562   */\n      swap1\n      pop\n        /* \"#utility.yul\":442:568   */\n      swap2\n      swap1\n      pop\n      jump\t// out\n        /* \"#utility.yul\":574:670   */\n    tag_82:\n        /* \"#utility.yul\":611:618   */\n      0x00\n        /* \"#utility.yul\":640:664   */\n      tag_111\n        /* \"#utility.yul\":658:663   */\n      dup3\n        /* \"#utility.yul\":640:664   */\n      tag_81\n      jump\t// in\n    tag_111:\n        /* \"#utility.yul\":629:664   */\n      swap1\n      pop\n        /* \"#utility.yul\":574:670   */\n      swap2\n      swap1\n      pop\n      jump\t// out\n        /* \"#utility.yul\":676:794   */\n    tag_83:\n        /* \"#utility.yul\":763:787   */\n      tag_113\n        /* \"#utility.yul\":781:786   */\n      dup2\n        /* \"#utility.yul\":763:787   */\n      tag_82\n      jump\t// in\n    tag_113:\n        /* \"#utility.yul\":758:761   */\n      dup3\n        /* \"#utility.yul\":751:788   */\n      mstore\n        /* \"#utility.yul\":676:794   */\n      pop\n      pop\n      jump\t// out\n        /* \"#utility.yul\":800:1022   */\n    tag_17:\n        /* \"#utility.yul\":893:897   */\n      0x00\n        /* \"#utility.yul\":931:933   */\n      0x20\n        /* \"#utility.yul\":920:929   */\n      dup3\n        /* \"#utility.yul\":916:934   */\n      add\n        /* \"#utility.yul\":908:934   */\n      swap1\n      pop\n        /* \"#utility.yul\":944:1015   */\n      tag_115\n        /* \"#utility.yul\":1012:1013   */\n      0x00\n        /* \"#utility.yul\":1001:1010   */\n      dup4\n        /* \"#utility.yul\":997:1014   */\n      add\n        /* \"#utility.yul\":988:994   */\n      dup5\n        /* \"#utility.yul\":944:1015   */\n      tag_83\n      jump\t// in\n    tag_115:\n        /* \"#utility.yul\":800:1022   */\n      swap3\n      swap2\n      pop\n      pop\n      jump\t// out\n        /* \"#utility.yul\":1028:1132   */\n    tag_84:\n        /* \"#utility.yul\":1073:1080   */\n      0x00\n        /* \"#utility.yul\":1102:1126   */\n      tag_117\n        /* \"#utility.yul\":1120:1125   */\n      dup3\n        /* \"#utility.yul\":1102:1126   */\n      tag_81\n      jump\t// in\n    tag_117:\n        /* \"#utility.yul\":1091:1126   */\n      swap1\n      pop\n        /* \"#utility.yul\":1028:1132   */\n      swap2\n      swap1\n      pop\n      jump\t// out\n        /* \"#utility.yul\":1138:1280   */\n    tag_85:\n        /* \"#utility.yul\":1241:1273   */\n      tag_119\n        /* \"#utility.yul\":1267:1272   */\n      dup2\n        /* \"#utility.yul\":1241:1273   */\n      tag_84\n      jump\t// in\n    tag_119:\n        /* \"#utility.yul\":1236:1239   */\n      dup3\n        /* \"#utility.yul\":1229:1274   */\n      mstore\n        /* \"#utility.yul\":1138:1280   */\n      pop\n      pop\n      jump\t// out\n        /* \"#utility.yul\":1286:1540   */\n    tag_27:\n        /* \"#utility.yul\":1395:1399   */\n      0x00\n        /* \"#utility.yul\":1433:1435   */\n      0x20\n        /* \"#utility.yul\":1422:1431   */\n      dup3\n        /* \"#utility.yul\":1418:1436   */\n      add\n        /* \"#utility.yul\":1410:1436   */\n      swap1\n      pop\n        /* \"#utility.yul\":1446:1533   */\n      tag_121\n        /* \"#utility.yul\":1530:1531   */\n      0x00\n        /* \"#utility.yul\":1519:1528   */\n      dup4\n        /* \"#utility.yul\":1515:1532   */\n      add\n        /* \"#utility.yul\":1506:1512   */\n      dup5\n        /* \"#utility.yul\":1446:1533   */\n      tag_85\n      jump\t// in\n    tag_121:\n        /* \"#utility.yul\":1286:1540   */\n      swap3\n      swap2\n      pop\n      pop\n      jump\t// out\n        /* \"#utility.yul\":1627:1744   */\n    tag_87:\n        /* \"#utility.yul\":1736:1737   */\n      0x00\n        /* \"#utility.yul\":1733:1734   */\n      dup1\n        /* \"#utility.yul\":1726:1738   */\n      revert\n        /* \"#utility.yul\":1873:1995   */\n    tag_89:\n        /* \"#utility.yul\":1946:1970   */\n      tag_126\n        /* \"#utility.yul\":1964:1969   */\n      dup2\n        /* \"#utility.yul\":1946:1970   */\n      tag_79\n      jump\t// in\n    tag_126:\n        /* \"#utility.yul\":1939:1944   */\n      dup2\n        /* \"#utility.yul\":1936:1971   */\n      eq\n        /* \"#utility.yul\":1926:1989   */\n      tag_127\n      jumpi\n        /* \"#utility.yul\":1985:1986   */\n      0x00\n        /* \"#utility.yul\":1982:1983   */\n      dup1\n        /* \"#utility.yul\":1975:1987   */\n      revert\n        /* \"#utility.yul\":1926:1989   */\n    tag_127:\n        /* \"#utility.yul\":1873:1995   */\n      pop\n      jump\t// out\n        /* \"#utility.yul\":2001:2140   */\n    tag_90:\n        /* \"#utility.yul\":2047:2052   */\n      0x00\n        /* \"#utility.yul\":2085:2091   */\n      dup2\n        /* \"#utility.yul\":2072:2092   */\n      calldataload\n        /* \"#utility.yul\":2063:2092   */\n      swap1\n      pop\n        /* \"#utility.yul\":2101:2134   */\n      tag_129\n        /* \"#utility.yul\":2128:2133   */\n      dup2\n        /* \"#utility.yul\":2101:2134   */\n      tag_89\n      jump\t// in\n    tag_129:\n        /* \"#utility.yul\":2001:2140   */\n      swap3\n      swap2\n      pop\n      pop\n      jump\t// out\n        /* \"#utility.yul\":2146:2475   */\n    tag_31:\n        /* \"#utility.yul\":2205:2211   */\n      0x00\n        /* \"#utility.yul\":2254:2256   */\n      0x20\n        /* \"#utility.yul\":2242:2251   */\n      dup3\n        /* \"#utility.yul\":2233:2240   */\n      dup5\n        /* \"#utility.yul\":2229:2252   */\n      sub\n        /* \"#utility.yul\":2225:2257   */\n      slt\n        /* \"#utility.yul\":2222:2341   */\n      iszero\n      tag_131\n      jumpi\n        /* \"#utility.yul\":2260:2339   */\n      tag_132\n      tag_87\n      jump\t// in\n    tag_132:\n        /* \"#utility.yul\":2222:2341   */\n    tag_131:\n        /* \"#utility.yul\":2380:2381   */\n      0x00\n        /* \"#utility.yul\":2405:2458   */\n      tag_133\n        /* \"#utility.yul\":2450:2457   */\n      dup5\n        /* \"#utility.yul\":2441:2447   */\n      dup3\n        /* \"#utility.yul\":2430:2439   */\n      dup6\n        /* \"#utility.yul\":2426:2448   */\n      add\n        /* \"#utility.yul\":2405:2458   */\n      tag_90\n      jump\t// in\n    tag_133:\n        /* \"#utility.yul\":2395:2458   */\n      swap2\n      pop\n        /* \"#utility.yul\":2351:2468   */\n      pop\n        /* \"#utility.yul\":2146:2475   */\n      swap3\n      swap2\n      pop\n      pop\n      jump\t// out\n        /* \"#utility.yul\":2481:2650   */\n    tag_91:\n        /* \"#utility.yul\":2565:2576   */\n      0x00\n        /* \"#utility.yul\":2599:2605   */\n      dup3\n        /* \"#utility.yul\":2594:2597   */\n      dup3\n        /* \"#utility.yul\":2587:2606   */\n      mstore\n        /* \"#utility.yul\":2639:2643   */\n      0x20\n        /* \"#utility.yul\":2634:2637   */\n      dup3\n        /* \"#utility.yul\":2630:2644   */\n      add\n        /* \"#utility.yul\":2615:2644   */\n      swap1\n      pop\n        /* \"#utility.yul\":2481:2650   */\n      swap3\n      swap2\n      pop\n      pop\n      jump\t// out\n        /* \"#utility.yul\":2656:2829   */\n    tag_92:\n        /* \"#utility.yul\":2796:2821   */\n      0x596f7520617265206e6f7420746865206d616e61676572000000000000000000\n        /* \"#utility.yul\":2792:2793   */\n      0x00\n        /* \"#utility.yul\":2784:2790   */\n      dup3\n        /* \"#utility.yul\":2780:2794   */\n      add\n        /* \"#utility.yul\":2773:2822   */\n      mstore\n        /* \"#utility.yul\":2656:2829   */\n      pop\n      jump\t// out\n        /* \"#utility.yul\":2835:3201   */\n    tag_93:\n        /* \"#utility.yul\":2977:2980   */\n      0x00\n        /* \"#utility.yul\":2998:3065   */\n      tag_137\n        /* \"#utility.yul\":3062:3064   */\n      0x17\n        /* \"#utility.yul\":3057:3060   */\n      dup4\n        /* \"#utility.yul\":2998:3065   */\n      tag_91\n      jump\t// in\n    tag_137:\n        /* \"#utility.yul\":2991:3065   */\n      swap2\n      pop\n        /* \"#utility.yul\":3074:3167   */\n      tag_138\n        /* \"#utility.yul\":3163:3166   */\n      dup3\n        /* \"#utility.yul\":3074:3167   */\n      tag_92\n      jump\t// in\n    tag_138:\n        /* \"#utility.yul\":3192:3194   */\n      0x20\n        /* \"#utility.yul\":3187:3190   */\n      dup3\n        /* \"#utility.yul\":3183:3195   */\n      add\n        /* \"#utility.yul\":3176:3195   */\n      swap1\n      pop\n        /* \"#utility.yul\":2835:3201   */\n      swap2\n      swap1\n      pop\n      jump\t// out\n        /* \"#utility.yul\":3207:3626   */\n    tag_37:\n        /* \"#utility.yul\":3373:3377   */\n      0x00\n        /* \"#utility.yul\":3411:3413   */\n      0x20\n        /* \"#utility.yul\":3400:3409   */\n      dup3\n        /* \"#utility.yul\":3396:3414   */\n      add\n        /* \"#utility.yul\":3388:3414   */\n      swap1\n      pop\n        /* \"#utility.yul\":3460:3469   */\n      dup2\n        /* \"#utility.yul\":3454:3458   */\n      dup2\n        /* \"#utility.yul\":3450:3470   */\n      sub\n        /* \"#utility.yul\":3446:3447   */\n      0x00\n        /* \"#utility.yul\":3435:3444   */\n      dup4\n        /* \"#utility.yul\":3431:3448   */\n      add\n        /* \"#utility.yul\":3424:3471   */\n      mstore\n        /* \"#utility.yul\":3488:3619   */\n      tag_140\n        /* \"#utility.yul\":3614:3618   */\n      dup2\n        /* \"#utility.yul\":3488:3619   */\n      tag_93\n      jump\t// in\n    tag_140:\n        /* \"#utility.yul\":3480:3619   */\n      swap1\n      pop\n        /* \"#utility.yul\":3207:3626   */\n      swap2\n      swap1\n      pop\n      jump\t// out\n        /* \"#utility.yul\":3632:3804   */\n    tag_94:\n        /* \"#utility.yul\":3772:3796   */\n      0x596f75277265206e6f7420746865206d616e6167657200000000000000000000\n        /* \"#utility.yul\":3768:3769   */\n      0x00\n        /* \"#utility.yul\":3760:3766   */\n      dup3\n        /* \"#utility.yul\":3756:3770   */\n      add\n        /* \"#utility.yul\":3749:3797   */\n      mstore\n        /* \"#utility.yul\":3632:3804   */\n      pop\n      jump\t// out\n        /* \"#utility.yul\":3810:4176   */\n    tag_95:\n        /* \"#utility.yul\":3952:3955   */\n      0x00\n        /* \"#utility.yul\":3973:4040   */\n      tag_143\n        /* \"#utility.yul\":4037:4039   */\n      0x16\n        /* \"#utility.yul\":4032:4035   */\n      dup4\n        /* \"#utility.yul\":3973:4040   */\n      tag_91\n      jump\t// in\n    tag_143:\n        /* \"#utility.yul\":3966:4040   */\n      swap2\n      pop\n        /* \"#utility.yul\":4049:4142   */\n      tag_144\n        /* \"#utility.yul\":4138:4141   */\n      dup3\n        /* \"#utility.yul\":4049:4142   */\n      tag_94\n      jump\t// in\n    tag_144:\n        /* \"#utility.yul\":4167:4169   */\n      0x20\n        /* \"#utility.yul\":4162:4165   */\n      dup3\n        /* \"#utility.yul\":4158:4170   */\n      add\n        /* \"#utility.yul\":4151:4170   */\n      swap1\n      pop\n        /* \"#utility.yul\":3810:4176   */\n      swap2\n      swap1\n      pop\n      jump\t// out\n        /* \"#utility.yul\":4182:4601   */\n    tag_41:\n        /* \"#utility.yul\":4348:4352   */\n      0x00\n        /* \"#utility.yul\":4386:4388   */\n      0x20\n        /* \"#utility.yul\":4375:4384   */\n      dup3\n        /* \"#utility.yul\":4371:4389   */\n      add\n        /* \"#utility.yul\":4363:4389   */\n      swap1\n      pop\n        /* \"#utility.yul\":4435:4444   */\n      dup2\n        /* \"#utility.yul\":4429:4433   */\n      dup2\n        /* \"#utility.yul\":4425:4445   */\n      sub\n        /* \"#utility.yul\":4421:4422   */\n      0x00\n        /* \"#utility.yul\":4410:4419   */\n      dup4\n        /* \"#utility.yul\":4406:4423   */\n      add\n        /* \"#utility.yul\":4399:4446   */\n      mstore\n        /* \"#utility.yul\":4463:4594   */\n      tag_146\n        /* \"#utility.yul\":4589:4593   */\n      dup2\n        /* \"#utility.yul\":4463:4594   */\n      tag_95\n      jump\t// in\n    tag_146:\n        /* \"#utility.yul\":4455:4594   */\n      swap1\n      pop\n        /* \"#utility.yul\":4182:4601   */\n      swap2\n      swap1\n      pop\n      jump\t// out\n        /* \"#utility.yul\":4607:4780   */\n    tag_96:\n        /* \"#utility.yul\":4747:4772   */\n      0x506c617965727320617265206c657373207468616e2033000000000000000000\n        /* \"#utility.yul\":4743:4744   */\n      0x00\n        /* \"#utility.yul\":4735:4741   */\n      dup3\n        /* \"#utility.yul\":4731:4745   */\n      add\n        /* \"#utility.yul\":4724:4773   */\n      mstore\n        /* \"#utility.yul\":4607:4780   */\n      pop\n      jump\t// out\n        /* \"#utility.yul\":4786:5152   */\n    tag_97:\n        /* \"#utility.yul\":4928:4931   */\n      0x00\n        /* \"#utility.yul\":4949:5016   */\n      tag_149\n        /* \"#utility.yul\":5013:5015   */\n      0x17\n        /* \"#utility.yul\":5008:5011   */\n      dup4\n        /* \"#utility.yul\":4949:5016   */\n      tag_91\n      jump\t// in\n    tag_149:\n        /* \"#utility.yul\":4942:5016   */\n      swap2\n      pop\n        /* \"#utility.yul\":5025:5118   */\n      tag_150\n        /* \"#utility.yul\":5114:5117   */\n      dup3\n        /* \"#utility.yul\":5025:5118   */\n      tag_96\n      jump\t// in\n    tag_150:\n        /* \"#utility.yul\":5143:5145   */\n      0x20\n        /* \"#utility.yul\":5138:5141   */\n      dup3\n        /* \"#utility.yul\":5134:5146   */\n      add\n        /* \"#utility.yul\":5127:5146   */\n      swap1\n      pop\n        /* \"#utility.yul\":4786:5152   */\n      swap2\n      swap1\n      pop\n      jump\t// out\n        /* \"#utility.yul\":5158:5577   */\n    tag_44:\n        /* \"#utility.yul\":5324:5328   */\n      0x00\n        /* \"#utility.yul\":5362:5364   */\n      0x20\n        /* \"#utility.yul\":5351:5360   */\n      dup3\n        /* \"#utility.yul\":5347:5365   */\n      add\n        /* \"#utility.yul\":5339:5365   */\n      swap1\n      pop\n        /* \"#utility.yul\":5411:5420   */\n      dup2\n        /* \"#utility.yul\":5405:5409   */\n      dup2\n        /* \"#utility.yul\":5401:5421   */\n      sub\n        /* \"#utility.yul\":5397:5398   */\n      0x00\n        /* \"#utility.yul\":5386:5395   */\n      dup4\n        /* \"#utility.yul\":5382:5399   */\n      add\n        /* \"#utility.yul\":5375:5422   */\n      mstore\n        /* \"#utility.yul\":5439:5570   */\n      tag_152\n        /* \"#utility.yul\":5565:5569   */\n      dup2\n        /* \"#utility.yul\":5439:5570   */\n      tag_97\n      jump\t// in\n    tag_152:\n        /* \"#utility.yul\":5431:5570   */\n      swap1\n      pop\n        /* \"#utility.yul\":5158:5577   */\n      swap2\n      swap1\n      pop\n      jump\t// out\n        /* \"#utility.yul\":5583:5763   */\n    tag_98:\n        /* \"#utility.yul\":5631:5708   */\n      0x4e487b7100000000000000000000000000000000000000000000000000000000\n        /* \"#utility.yul\":5628:5629   */\n      0x00\n        /* \"#utility.yul\":5621:5709   */\n      mstore\n        /* \"#utility.yul\":5728:5732   */\n      0x12\n        /* \"#utility.yul\":5725:5726   */\n      0x04\n        /* \"#utility.yul\":5718:5733   */\n      mstore\n        /* \"#utility.yul\":5752:5756   */\n      0x24\n        /* \"#utility.yul\":5749:5750   */\n      0x00\n        /* \"#utility.yul\":5742:5757   */\n      revert\n        /* \"#utility.yul\":5769:5945   */\n    tag_48:\n        /* \"#utility.yul\":5801:5802   */\n      0x00\n        /* \"#utility.yul\":5818:5838   */\n      tag_155\n        /* \"#utility.yul\":5836:5837   */\n      dup3\n        /* \"#utility.yul\":5818:5838   */\n      tag_79\n      jump\t// in\n    tag_155:\n        /* \"#utility.yul\":5813:5838   */\n      swap2\n      pop\n        /* \"#utility.yul\":5852:5872   */\n      tag_156\n        /* \"#utility.yul\":5870:5871   */\n      dup4\n        /* \"#utility.yul\":5852:5872   */\n      tag_79\n      jump\t// in\n    tag_156:\n        /* \"#utility.yul\":5847:5872   */\n      swap3\n      pop\n        /* \"#utility.yul\":5891:5892   */\n      dup3\n        /* \"#utility.yul\":5881:5916   */\n      tag_157\n      jumpi\n        /* \"#utility.yul\":5896:5914   */\n      tag_158\n      tag_98\n      jump\t// in\n    tag_158:\n        /* \"#utility.yul\":5881:5916   */\n    tag_157:\n        /* \"#utility.yul\":5937:5938   */\n      dup3\n        /* \"#utility.yul\":5934:5935   */\n      dup3\n        /* \"#utility.yul\":5930:5939   */\n      mod\n        /* \"#utility.yul\":5925:5939   */\n      swap1\n      pop\n        /* \"#utility.yul\":5769:5945   */\n      swap3\n      swap2\n      pop\n      pop\n      jump\t// out\n        /* \"#utility.yul\":5951:6131   */\n    tag_51:\n        /* \"#utility.yul\":5999:6076   */\n      0x4e487b7100000000000000000000000000000000000000000000000000000000\n        /* \"#utility.yul\":5996:5997   */\n      0x00\n        /* \"#utility.yul\":5989:6077   */\n      mstore\n        /* \"#utility.yul\":6096:6100   */\n      0x32\n        /* \"#utility.yul\":6093:6094   */\n      0x04\n        /* \"#utility.yul\":6086:6101   */\n      mstore\n        /* \"#utility.yul\":6120:6124   */\n      0x24\n        /* \"#utility.yul\":6117:6118   */\n      0x00\n        /* \"#utility.yul\":6110:6125   */\n      revert\n        /* \"#utility.yul\":6137:6317   */\n    tag_58:\n        /* \"#utility.yul\":6185:6262   */\n      0x4e487b7100000000000000000000000000000000000000000000000000000000\n        /* \"#utility.yul\":6182:6183   */\n      0x00\n        /* \"#utility.yul\":6175:6263   */\n      mstore\n        /* \"#utility.yul\":6282:6286   */\n      0x41\n        /* \"#utility.yul\":6279:6280   */\n      0x04\n        /* \"#utility.yul\":6272:6287   */\n      mstore\n        /* \"#utility.yul\":6306:6310   */\n      0x24\n        /* \"#utility.yul\":6303:6304   */\n      0x00\n        /* \"#utility.yul\":6296:6311   */\n      revert\n        /* \"#utility.yul\":6323:6499   */\n    tag_99:\n        /* \"#utility.yul\":6463:6491   */\n      0x506c65617365207061792075702031206574686572206f6e6c79000000000000\n        /* \"#utility.yul\":6459:6460   */\n      0x00\n        /* \"#utility.yul\":6451:6457   */\n      dup3\n        /* \"#utility.yul\":6447:6461   */\n      add\n        /* \"#utility.yul\":6440:6492   */\n      mstore\n        /* \"#utility.yul\":6323:6499   */\n      pop\n      jump\t// out\n        /* \"#utility.yul\":6505:6871   */\n    tag_100:\n        /* \"#utility.yul\":6647:6650   */\n      0x00\n        /* \"#utility.yul\":6668:6735   */\n      tag_163\n        /* \"#utility.yul\":6732:6734   */\n      0x1a\n        /* \"#utility.yul\":6727:6730   */\n      dup4\n        /* \"#utility.yul\":6668:6735   */\n      tag_91\n      jump\t// in\n    tag_163:\n        /* \"#utility.yul\":6661:6735   */\n      swap2\n      pop\n        /* \"#utility.yul\":6744:6837   */\n      tag_164\n        /* \"#utility.yul\":6833:6836   */\n      dup3\n        /* \"#utility.yul\":6744:6837   */\n      tag_99\n      jump\t// in\n    tag_164:\n        /* \"#utility.yul\":6862:6864   */\n      0x20\n        /* \"#utility.yul\":6857:6860   */\n      dup3\n        /* \"#utility.yul\":6853:6865   */\n      add\n        /* \"#utility.yul\":6846:6865   */\n      swap1\n      pop\n        /* \"#utility.yul\":6505:6871   */\n      swap2\n      swap1\n      pop\n      jump\t// out\n        /* \"#utility.yul\":6877:7296   */\n    tag_65:\n        /* \"#utility.yul\":7043:7047   */\n      0x00\n        /* \"#utility.yul\":7081:7083   */\n      0x20\n        /* \"#utility.yul\":7070:7079   */\n      dup3\n        /* \"#utility.yul\":7066:7084   */\n      add\n        /* \"#utility.yul\":7058:7084   */\n      swap1\n      pop\n        /* \"#utility.yul\":7130:7139   */\n      dup2\n        /* \"#utility.yul\":7124:7128   */\n      dup2\n        /* \"#utility.yul\":7120:7140   */\n      sub\n        /* \"#utility.yul\":7116:7117   */\n      0x00\n        /* \"#utility.yul\":7105:7114   */\n      dup4\n        /* \"#utility.yul\":7101:7118   */\n      add\n        /* \"#utility.yul\":7094:7141   */\n      mstore\n        /* \"#utility.yul\":7158:7289   */\n      tag_166\n        /* \"#utility.yul\":7284:7288   */\n      dup2\n        /* \"#utility.yul\":7158:7289   */\n      tag_100\n      jump\t// in\n    tag_166:\n        /* \"#utility.yul\":7150:7289   */\n      swap1\n      pop\n        /* \"#utility.yul\":6877:7296   */\n      swap2\n      swap1\n      pop\n      jump\t// out\n        /* \"#utility.yul\":7302:7381   */\n    tag_101:\n        /* \"#utility.yul\":7341:7348   */\n      0x00\n        /* \"#utility.yul\":7370:7375   */\n      dup2\n        /* \"#utility.yul\":7359:7375   */\n      swap1\n      pop\n        /* \"#utility.yul\":7302:7381   */\n      swap2\n      swap1\n      pop\n      jump\t// out\n        /* \"#utility.yul\":7387:7544   */\n    tag_102:\n        /* \"#utility.yul\":7492:7537   */\n      tag_169\n        /* \"#utility.yul\":7512:7536   */\n      tag_170\n        /* \"#utility.yul\":7530:7535   */\n      dup3\n        /* \"#utility.yul\":7512:7536   */\n      tag_79\n      jump\t// in\n    tag_170:\n        /* \"#utility.yul\":7492:7537   */\n      tag_101\n      jump\t// in\n    tag_169:\n        /* \"#utility.yul\":7487:7490   */\n      dup3\n        /* \"#utility.yul\":7480:7538   */\n      mstore\n        /* \"#utility.yul\":7387:7544   */\n      pop\n      pop\n      jump\t// out\n        /* \"#utility.yul\":7550:8088   */\n    tag_71:\n        /* \"#utility.yul\":7718:7721   */\n      0x00\n        /* \"#utility.yul\":7733:7808   */\n      tag_172\n        /* \"#utility.yul\":7804:7807   */\n      dup3\n        /* \"#utility.yul\":7795:7801   */\n      dup7\n        /* \"#utility.yul\":7733:7808   */\n      tag_102\n      jump\t// in\n    tag_172:\n        /* \"#utility.yul\":7833:7835   */\n      0x20\n        /* \"#utility.yul\":7828:7831   */\n      dup3\n        /* \"#utility.yul\":7824:7836   */\n      add\n        /* \"#utility.yul\":7817:7836   */\n      swap2\n      pop\n        /* \"#utility.yul\":7846:7921   */\n      tag_173\n        /* \"#utility.yul\":7917:7920   */\n      dup3\n        /* \"#utility.yul\":7908:7914   */\n      dup6\n        /* \"#utility.yul\":7846:7921   */\n      tag_102\n      jump\t// in\n    tag_173:\n        /* \"#utility.yul\":7946:7948   */\n      0x20\n        /* \"#utility.yul\":7941:7944   */\n      dup3\n        /* \"#utility.yul\":7937:7949   */\n      add\n        /* \"#utility.yul\":7930:7949   */\n      swap2\n      pop\n        /* \"#utility.yul\":7959:8034   */\n      tag_174\n        /* \"#utility.yul\":8030:8033   */\n      dup3\n        /* \"#utility.yul\":8021:8027   */\n      dup5\n        /* \"#utility.yul\":7959:8034   */\n      tag_102\n      jump\t// in\n    tag_174:\n        /* \"#utility.yul\":8059:8061   */\n      0x20\n        /* \"#utility.yul\":8054:8057   */\n      dup3\n        /* \"#utility.yul\":8050:8062   */\n      add\n        /* \"#utility.yul\":8043:8062   */\n      swap2\n      pop\n        /* \"#utility.yul\":8079:8082   */\n      dup2\n        /* \"#utility.yul\":8072:8082   */\n      swap1\n      pop\n        /* \"#utility.yul\":7550:8088   */\n      swap5\n      swap4\n      pop\n      pop\n      pop\n      pop\n      jump\t// out\n\n    auxdata: 0xa264697066735822122086ec5915ad08fd1afe92c5661682b318341474529279d3f06336d92bbce2512c64736f6c63430008120033\n}\n",
				"bytecode": {
					"linkReferences": {},
					"object": "608060405234801561001057600080fd5b50336000806101000a81548173ffffffffffffffffffffffffffffffffffffffff021916908373ffffffffffffffffffffffffffffffffffffffff160217905550610a70806100606000396000f3fe6080604052600436106100555760003560e01c806312065fe01461005a578063481c6a75146100855780635d495aea146100b0578063d11711a2146100c7578063dfbf53ae146100d1578063f71d96cb146100fc575b600080fd5b34801561006657600080fd5b5061006f610139565b60405161007c919061064c565b60405180910390f35b34801561009157600080fd5b5061009a6101cf565b6040516100a791906106a8565b60405180910390f35b3480156100bc57600080fd5b506100c56101f3565b005b6100cf61043e565b005b3480156100dd57600080fd5b506100e66104ed565b6040516100f391906106e4565b60405180910390f35b34801561010857600080fd5b50610123600480360381019061011e9190610730565b610513565b60405161013091906106e4565b60405180910390f35b60003373ffffffffffffffffffffffffffffffffffffffff1660008054906101000a900473ffffffffffffffffffffffffffffffffffffffff1673ffffffffffffffffffffffffffffffffffffffff16146101c9576040517f08c379a00000000000000000000000000000000000000000000000000000000081526004016101c0906107ba565b60405180910390fd5b47905090565b60008054906101000a900473ffffffffffffffffffffffffffffffffffffffff1681565b3373ffffffffffffffffffffffffffffffffffffffff1660008054906101000a900473ffffffffffffffffffffffffffffffffffffffff1673ffffffffffffffffffffffffffffffffffffffff1614610281576040517f08c379a000000000000000000000000000000000000000000000000000000000815260040161027890610826565b60405180910390fd5b600360018054905010156102ca576040517f08c379a00000000000000000000000000000000000000000000000000000000081526004016102c190610892565b60405180910390fd5b60006102d4610552565b90506000600180549050826102e991906108e1565b9050600181815481106102ff576102fe610912565b5b9060005260206000200160009054906101000a900473ffffffffffffffffffffffffffffffffffffffff16600260006101000a81548173ffffffffffffffffffffffffffffffffffffffff021916908373ffffffffffffffffffffffffffffffffffffffff160217905550600260009054906101000a900473ffffffffffffffffffffffffffffffffffffffff1673ffffffffffffffffffffffffffffffffffffffff166108fc6103ae610139565b9081150290604051600060405180830381858888f193505050501580156103d9573d6000803e3d6000fd5b50600067ffffffffffffffff8111156103f5576103f4610941565b5b6040519080825280602002602001820160405280156104235781602001602082028036833780820191505090505b506001908051906020019061043992919061058c565b505050565b670de0b6b3a76400003414610488576040517f08c379a000000000000000000000000000000000000000000000000000000000815260040161047f906109bc565b60405180910390fd5b6001339080600181540180825580915050600190039060005260206000200160009091909190916101000a81548173ffffffffffffffffffffffffffffffffffffffff021916908373ffffffffffffffffffffffffffffffffffffffff160217905550565b600260009054906101000a900473ffffffffffffffffffffffffffffffffffffffff1681565b6001818154811061052357600080fd5b906000526020600020016000915054906101000a900473ffffffffffffffffffffffffffffffffffffffff1681565b6000444260018054905060405160200161056e939291906109fd565b6040516020818303038152906040528051906020012060001c905090565b828054828255906000526020600020908101928215610605579160200282015b828111156106045782518260006101000a81548173ffffffffffffffffffffffffffffffffffffffff021916908373ffffffffffffffffffffffffffffffffffffffff160217905550916020019190600101906105ac565b5b5090506106129190610616565b5090565b5b8082111561062f576000816000905550600101610617565b5090565b6000819050919050565b61064681610633565b82525050565b6000602082019050610661600083018461063d565b92915050565b600073ffffffffffffffffffffffffffffffffffffffff82169050919050565b600061069282610667565b9050919050565b6106a281610687565b82525050565b60006020820190506106bd6000830184610699565b92915050565b60006106ce82610667565b9050919050565b6106de816106c3565b82525050565b60006020820190506106f960008301846106d5565b92915050565b600080fd5b61070d81610633565b811461071857600080fd5b50565b60008135905061072a81610704565b92915050565b600060208284031215610746576107456106ff565b5b60006107548482850161071b565b91505092915050565b600082825260208201905092915050565b7f596f7520617265206e6f7420746865206d616e61676572000000000000000000600082015250565b60006107a460178361075d565b91506107af8261076e565b602082019050919050565b600060208201905081810360008301526107d381610797565b9050919050565b7f596f75277265206e6f7420746865206d616e6167657200000000000000000000600082015250565b600061081060168361075d565b915061081b826107da565b602082019050919050565b6000602082019050818103600083015261083f81610803565b9050919050565b7f506c617965727320617265206c657373207468616e2033000000000000000000600082015250565b600061087c60178361075d565b915061088782610846565b602082019050919050565b600060208201905081810360008301526108ab8161086f565b9050919050565b7f4e487b7100000000000000000000000000000000000000000000000000000000600052601260045260246000fd5b60006108ec82610633565b91506108f783610633565b925082610907576109066108b2565b5b828206905092915050565b7f4e487b7100000000000000000000000000000000000000000000000000000000600052603260045260246000fd5b7f4e487b7100000000000000000000000000000000000000000000000000000000600052604160045260246000fd5b7f506c65617365207061792075702031206574686572206f6e6c79000000000000600082015250565b60006109a6601a8361075d565b91506109b182610970565b602082019050919050565b600060208201905081810360008301526109d581610999565b9050919050565b6000819050919050565b6109f76109f282610633565b6109dc565b82525050565b6000610a0982866109e6565b602082019150610a1982856109e6565b602082019150610a2982846109e6565b60208201915081905094935050505056fea264697066735822122086ec5915ad08fd1afe92c5661682b318341474529279d3f06336d92bbce2512c64736f6c63430008120033",
					"opcodes": "PUSH1 0x80 PUSH1 0x40 MSTORE CALLVALUE DUP1 ISZERO PUSH2 0x10 JUMPI PUSH1 0x0 DUP1 REVERT JUMPDEST POP CALLER PUSH1 0x0 DUP1 PUSH2 0x100 EXP DUP2 SLOAD DUP2 PUSH20 0xFFFFFFFFFFFFFFFFFFFFFFFFFFFFFFFFFFFFFFFF MUL NOT AND SWAP1 DUP4 PUSH20 0xFFFFFFFFFFFFFFFFFFFFFFFFFFFFFFFFFFFFFFFF AND MUL OR SWAP1 SSTORE POP PUSH2 0xA70 DUP1 PUSH2 0x60 PUSH1 0x0 CODECOPY PUSH1 0x0 RETURN INVALID PUSH1 0x80 PUSH1 0x40 MSTORE PUSH1 0x4 CALLDATASIZE LT PUSH2 0x55 JUMPI PUSH1 0x0 CALLDATALOAD PUSH1 0xE0 SHR DUP1 PUSH4 0x12065FE0 EQ PUSH2 0x5A JUMPI DUP1 PUSH4 0x481C6A75 EQ PUSH2 0x85 JUMPI DUP1 PUSH4 0x5D495AEA EQ PUSH2 0xB0 JUMPI DUP1 PUSH4 0xD11711A2 EQ PUSH2 0xC7 JUMPI DUP1 PUSH4 0xDFBF53AE EQ PUSH2 0xD1 JUMPI DUP1 PUSH4 0xF71D96CB EQ PUSH2 0xFC JUMPI JUMPDEST PUSH1 0x0 DUP1 REVERT JUMPDEST CALLVALUE DUP1 ISZERO PUSH2 0x66 JUMPI PUSH1 0x0 DUP1 REVERT JUMPDEST POP PUSH2 0x6F PUSH2 0x139 JUMP JUMPDEST PUSH1 0x40 MLOAD PUSH2 0x7C SWAP2 SWAP1 PUSH2 0x64C JUMP JUMPDEST PUSH1 0x40 MLOAD DUP1 SWAP2 SUB SWAP1 RETURN JUMPDEST CALLVALUE DUP1 ISZERO PUSH2 0x91 JUMPI PUSH1 0x0 DUP1 REVERT JUMPDEST POP PUSH2 0x9A PUSH2 0x1CF JUMP JUMPDEST PUSH1 0x40 MLOAD PUSH2 0xA7 SWAP2 SWAP1 PUSH2 0x6A8 JUMP JUMPDEST PUSH1 0x40 MLOAD DUP1 SWAP2 SUB SWAP1 RETURN JUMPDEST CALLVALUE DUP1 ISZERO PUSH2 0xBC JUMPI PUSH1 0x0 DUP1 REVERT JUMPDEST POP PUSH2 0xC5 PUSH2 0x1F3 JUMP JUMPDEST STOP JUMPDEST PUSH2 0xCF PUSH2 0x43E JUMP JUMPDEST STOP JUMPDEST CALLVALUE DUP1 ISZERO PUSH2 0xDD JUMPI PUSH1 0x0 DUP1 REVERT JUMPDEST POP PUSH2 0xE6 PUSH2 0x4ED JUMP JUMPDEST PUSH1 0x40 MLOAD PUSH2 0xF3 SWAP2 SWAP1 PUSH2 0x6E4 JUMP JUMPDEST PUSH1 0x40 MLOAD DUP1 SWAP2 SUB SWAP1 RETURN JUMPDEST CALLVALUE DUP1 ISZERO PUSH2 0x108 JUMPI PUSH1 0x0 DUP1 REVERT JUMPDEST POP PUSH2 0x123 PUSH1 0x4 DUP1 CALLDATASIZE SUB DUP2 ADD SWAP1 PUSH2 0x11E SWAP2 SWAP1 PUSH2 0x730 JUMP JUMPDEST PUSH2 0x513 JUMP JUMPDEST PUSH1 0x40 MLOAD PUSH2 0x130 SWAP2 SWAP1 PUSH2 0x6E4 JUMP JUMPDEST PUSH1 0x40 MLOAD DUP1 SWAP2 SUB SWAP1 RETURN JUMPDEST PUSH1 0x0 CALLER PUSH20 0xFFFFFFFFFFFFFFFFFFFFFFFFFFFFFFFFFFFFFFFF AND PUSH1 0x0 DUP1 SLOAD SWAP1 PUSH2 0x100 EXP SWAP1 DIV PUSH20 0xFFFFFFFFFFFFFFFFFFFFFFFFFFFFFFFFFFFFFFFF AND PUSH20 0xFFFFFFFFFFFFFFFFFFFFFFFFFFFFFFFFFFFFFFFF AND EQ PUSH2 0x1C9 JUMPI PUSH1 0x40 MLOAD PUSH32 0x8C379A000000000000000000000000000000000000000000000000000000000 DUP2 MSTORE PUSH1 0x4 ADD PUSH2 0x1C0 SWAP1 PUSH2 0x7BA JUMP JUMPDEST PUSH1 0x40 MLOAD DUP1 SWAP2 SUB SWAP1 REVERT JUMPDEST SELFBALANCE SWAP1 POP SWAP1 JUMP JUMPDEST PUSH1 0x0 DUP1 SLOAD SWAP1 PUSH2 0x100 EXP SWAP1 DIV PUSH20 0xFFFFFFFFFFFFFFFFFFFFFFFFFFFFFFFFFFFFFFFF AND DUP2 JUMP JUMPDEST CALLER PUSH20 0xFFFFFFFFFFFFFFFFFFFFFFFFFFFFFFFFFFFFFFFF AND PUSH1 0x0 DUP1 SLOAD SWAP1 PUSH2 0x100 EXP SWAP1 DIV PUSH20 0xFFFFFFFFFFFFFFFFFFFFFFFFFFFFFFFFFFFFFFFF AND PUSH20 0xFFFFFFFFFFFFFFFFFFFFFFFFFFFFFFFFFFFFFFFF AND EQ PUSH2 0x281 JUMPI PUSH1 0x40 MLOAD PUSH32 0x8C379A000000000000000000000000000000000000000000000000000000000 DUP2 MSTORE PUSH1 0x4 ADD PUSH2 0x278 SWAP1 PUSH2 0x826 JUMP JUMPDEST PUSH1 0x40 MLOAD DUP1 SWAP2 SUB SWAP1 REVERT JUMPDEST PUSH1 0x3 PUSH1 0x1 DUP1 SLOAD SWAP1 POP LT ISZERO PUSH2 0x2CA JUMPI PUSH1 0x40 MLOAD PUSH32 0x8C379A000000000000000000000000000000000000000000000000000000000 DUP2 MSTORE PUSH1 0x4 ADD PUSH2 0x2C1 SWAP1 PUSH2 0x892 JUMP JUMPDEST PUSH1 0x40 MLOAD DUP1 SWAP2 SUB SWAP1 REVERT JUMPDEST PUSH1 0x0 PUSH2 0x2D4 PUSH2 0x552 JUMP JUMPDEST SWAP1 POP PUSH1 0x0 PUSH1 0x1 DUP1 SLOAD SWAP1 POP DUP3 PUSH2 0x2E9 SWAP2 SWAP1 PUSH2 0x8E1 JUMP JUMPDEST SWAP1 POP PUSH1 0x1 DUP2 DUP2 SLOAD DUP2 LT PUSH2 0x2FF JUMPI PUSH2 0x2FE PUSH2 0x912 JUMP JUMPDEST JUMPDEST SWAP1 PUSH1 0x0 MSTORE PUSH1 0x20 PUSH1 0x0 KECCAK256 ADD PUSH1 0x0 SWAP1 SLOAD SWAP1 PUSH2 0x100 EXP SWAP1 DIV PUSH20 0xFFFFFFFFFFFFFFFFFFFFFFFFFFFFFFFFFFFFFFFF AND PUSH1 0x2 PUSH1 0x0 PUSH2 0x100 EXP DUP2 SLOAD DUP2 PUSH20 0xFFFFFFFFFFFFFFFFFFFFFFFFFFFFFFFFFFFFFFFF MUL NOT AND SWAP1 DUP4 PUSH20 0xFFFFFFFFFFFFFFFFFFFFFFFFFFFFFFFFFFFFFFFF AND MUL OR SWAP1 SSTORE POP PUSH1 0x2 PUSH1 0x0 SWAP1 SLOAD SWAP1 PUSH2 0x100 EXP SWAP1 DIV PUSH20 0xFFFFFFFFFFFFFFFFFFFFFFFFFFFFFFFFFFFFFFFF AND PUSH20 0xFFFFFFFFFFFFFFFFFFFFFFFFFFFFFFFFFFFFFFFF AND PUSH2 0x8FC PUSH2 0x3AE PUSH2 0x139 JUMP JUMPDEST SWAP1 DUP2 ISZERO MUL SWAP1 PUSH1 0x40 MLOAD PUSH1 0x0 PUSH1 0x40 MLOAD DUP1 DUP4 SUB DUP2 DUP6 DUP9 DUP9 CALL SWAP4 POP POP POP POP ISZERO DUP1 ISZERO PUSH2 0x3D9 JUMPI RETURNDATASIZE PUSH1 0x0 DUP1 RETURNDATACOPY RETURNDATASIZE PUSH1 0x0 REVERT JUMPDEST POP PUSH1 0x0 PUSH8 0xFFFFFFFFFFFFFFFF DUP2 GT ISZERO PUSH2 0x3F5 JUMPI PUSH2 0x3F4 PUSH2 0x941 JUMP JUMPDEST JUMPDEST PUSH1 0x40 MLOAD SWAP1 DUP1 DUP3 MSTORE DUP1 PUSH1 0x20 MUL PUSH1 0x20 ADD DUP3 ADD PUSH1 0x40 MSTORE DUP1 ISZERO PUSH2 0x423 JUMPI DUP2 PUSH1 0x20 ADD PUSH1 0x20 DUP3 MUL DUP1 CALLDATASIZE DUP4 CALLDATACOPY DUP1 DUP3 ADD SWAP2 POP POP SWAP1 POP JUMPDEST POP PUSH1 0x1 SWAP1 DUP1 MLOAD SWAP1 PUSH1 0x20 ADD SWAP1 PUSH2 0x439 SWAP3 SWAP2 SWAP1 PUSH2 0x58C JUMP JUMPDEST POP POP POP JUMP JUMPDEST PUSH8 0xDE0B6B3A7640000 CALLVALUE EQ PUSH2 0x488 JUMPI PUSH1 0x40 MLOAD PUSH32 0x8C379A000000000000000000000000000000000000000000000000000000000 DUP2 MSTORE PUSH1 0x4 ADD PUSH2 0x47F SWAP1 PUSH2 0x9BC JUMP JUMPDEST PUSH1 0x40 MLOAD DUP1 SWAP2 SUB SWAP1 REVERT JUMPDEST PUSH1 0x1 CALLER SWAP1 DUP1 PUSH1 0x1 DUP2 SLOAD ADD DUP1 DUP3 SSTORE DUP1 SWAP2 POP POP PUSH1 0x1 SWAP1 SUB SWAP1 PUSH1 0x0 MSTORE PUSH1 0x20 PUSH1 0x0 KECCAK256 ADD PUSH1 0x0 SWAP1 SWAP2 SWAP1 SWAP2 SWAP1 SWAP2 PUSH2 0x100 EXP DUP2 SLOAD DUP2 PUSH20 0xFFFFFFFFFFFFFFFFFFFFFFFFFFFFFFFFFFFFFFFF MUL NOT AND SWAP1 DUP4 PUSH20 0xFFFFFFFFFFFFFFFFFFFFFFFFFFFFFFFFFFFFFFFF AND MUL OR SWAP1 SSTORE POP JUMP JUMPDEST PUSH1 0x2 PUSH1 0x0 SWAP1 SLOAD SWAP1 PUSH2 0x100 EXP SWAP1 DIV PUSH20 0xFFFFFFFFFFFFFFFFFFFFFFFFFFFFFFFFFFFFFFFF AND DUP2 JUMP JUMPDEST PUSH1 0x1 DUP2 DUP2 SLOAD DUP2 LT PUSH2 0x523 JUMPI PUSH1 0x0 DUP1 REVERT JUMPDEST SWAP1 PUSH1 0x0 MSTORE PUSH1 0x20 PUSH1 0x0 KECCAK256 ADD PUSH1 0x0 SWAP2 POP SLOAD SWAP1 PUSH2 0x100 EXP SWAP1 DIV PUSH20 0xFFFFFFFFFFFFFFFFFFFFFFFFFFFFFFFFFFFFFFFF AND DUP2 JUMP JUMPDEST PUSH1 0x0 PREVRANDAO TIMESTAMP PUSH1 0x1 DUP1 SLOAD SWAP1 POP PUSH1 0x40 MLOAD PUSH1 0x20 ADD PUSH2 0x56E SWAP4 SWAP3 SWAP2 SWAP1 PUSH2 0x9FD JUMP JUMPDEST PUSH1 0x40 MLOAD PUSH1 0x20 DUP2 DUP4 SUB SUB DUP2 MSTORE SWAP1 PUSH1 0x40 MSTORE DUP1 MLOAD SWAP1 PUSH1 0x20 ADD KECCAK256 PUSH1 0x0 SHR SWAP1 POP SWAP1 JUMP JUMPDEST DUP3 DUP1 SLOAD DUP3 DUP3 SSTORE SWAP1 PUSH1 0x0 MSTORE PUSH1 0x20 PUSH1 0x0 KECCAK256 SWAP1 DUP2 ADD SWAP3 DUP3 ISZERO PUSH2 0x605 JUMPI SWAP2 PUSH1 0x20 MUL DUP3 ADD JUMPDEST DUP3 DUP2 GT ISZERO PUSH2 0x604 JUMPI DUP3 MLOAD DUP3 PUSH1 0x0 PUSH2 0x100 EXP DUP2 SLOAD DUP2 PUSH20 0xFFFFFFFFFFFFFFFFFFFFFFFFFFFFFFFFFFFFFFFF MUL NOT AND SWAP1 DUP4 PUSH20 0xFFFFFFFFFFFFFFFFFFFFFFFFFFFFFFFFFFFFFFFF AND MUL OR SWAP1 SSTORE POP SWAP2 PUSH1 0x20 ADD SWAP2 SWAP1 PUSH1 0x1 ADD SWAP1 PUSH2 0x5AC JUMP JUMPDEST JUMPDEST POP SWAP1 POP PUSH2 0x612 SWAP2 SWAP1 PUSH2 0x616 JUMP JUMPDEST POP SWAP1 JUMP JUMPDEST JUMPDEST DUP1 DUP3 GT ISZERO PUSH2 0x62F JUMPI PUSH1 0x0 DUP2 PUSH1 0x0 SWAP1 SSTORE POP PUSH1 0x1 ADD PUSH2 0x617 JUMP JUMPDEST POP SWAP1 JUMP JUMPDEST PUSH1 0x0 DUP2 SWAP1 POP SWAP2 SWAP1 POP JUMP JUMPDEST PUSH2 0x646 DUP2 PUSH2 0x633 JUMP JUMPDEST DUP3 MSTORE POP POP JUMP JUMPDEST PUSH1 0x0 PUSH1 0x20 DUP3 ADD SWAP1 POP PUSH2 0x661 PUSH1 0x0 DUP4 ADD DUP5 PUSH2 0x63D JUMP JUMPDEST SWAP3 SWAP2 POP POP JUMP JUMPDEST PUSH1 0x0 PUSH20 0xFFFFFFFFFFFFFFFFFFFFFFFFFFFFFFFFFFFFFFFF DUP3 AND SWAP1 POP SWAP2 SWAP1 POP JUMP JUMPDEST PUSH1 0x0 PUSH2 0x692 DUP3 PUSH2 0x667 JUMP JUMPDEST SWAP1 POP SWAP2 SWAP1 POP JUMP JUMPDEST PUSH2 0x6A2 DUP2 PUSH2 0x687 JUMP JUMPDEST DUP3 MSTORE POP POP JUMP JUMPDEST PUSH1 0x0 PUSH1 0x20 DUP3 ADD SWAP1 POP PUSH2 0x6BD PUSH1 0x0 DUP4 ADD DUP5 PUSH2 0x699 JUMP JUMPDEST SWAP3 SWAP2 POP POP JUMP JUMPDEST PUSH1 0x0 PUSH2 0x6CE DUP3 PUSH2 0x667 JUMP JUMPDEST SWAP1 POP SWAP2 SWAP1 POP JUMP JUMPDEST PUSH2 0x6DE DUP2 PUSH2 0x6C3 JUMP JUMPDEST DUP3 MSTORE POP POP JUMP JUMPDEST PUSH1 0x0 PUSH1 0x20 DUP3 ADD SWAP1 POP PUSH2 0x6F9 PUSH1 0x0 DUP4 ADD DUP5 PUSH2 0x6D5 JUMP JUMPDEST SWAP3 SWAP2 POP POP JUMP JUMPDEST PUSH1 0x0 DUP1 REVERT JUMPDEST PUSH2 0x70D DUP2 PUSH2 0x633 JUMP JUMPDEST DUP2 EQ PUSH2 0x718 JUMPI PUSH1 0x0 DUP1 REVERT JUMPDEST POP JUMP JUMPDEST PUSH1 0x0 DUP2 CALLDATALOAD SWAP1 POP PUSH2 0x72A DUP2 PUSH2 0x704 JUMP JUMPDEST SWAP3 SWAP2 POP POP JUMP JUMPDEST PUSH1 0x0 PUSH1 0x20 DUP3 DUP5 SUB SLT ISZERO PUSH2 0x746 JUMPI PUSH2 0x745 PUSH2 0x6FF JUMP JUMPDEST JUMPDEST PUSH1 0x0 PUSH2 0x754 DUP5 DUP3 DUP6 ADD PUSH2 0x71B JUMP JUMPDEST SWAP2 POP POP SWAP3 SWAP2 POP POP JUMP JUMPDEST PUSH1 0x0 DUP3 DUP3 MSTORE PUSH1 0x20 DUP3 ADD SWAP1 POP SWAP3 SWAP2 POP POP JUMP JUMPDEST PUSH32 0x596F7520617265206E6F7420746865206D616E61676572000000000000000000 PUSH1 0x0 DUP3 ADD MSTORE POP JUMP JUMPDEST PUSH1 0x0 PUSH2 0x7A4 PUSH1 0x17 DUP4 PUSH2 0x75D JUMP JUMPDEST SWAP2 POP PUSH2 0x7AF DUP3 PUSH2 0x76E JUMP JUMPDEST PUSH1 0x20 DUP3 ADD SWAP1 POP SWAP2 SWAP1 POP JUMP JUMPDEST PUSH1 0x0 PUSH1 0x20 DUP3 ADD SWAP1 POP DUP2 DUP2 SUB PUSH1 0x0 DUP4 ADD MSTORE PUSH2 0x7D3 DUP2 PUSH2 0x797 JUMP JUMPDEST SWAP1 POP SWAP2 SWAP1 POP JUMP JUMPDEST PUSH32 0x596F75277265206E6F7420746865206D616E6167657200000000000000000000 PUSH1 0x0 DUP3 ADD MSTORE POP JUMP JUMPDEST PUSH1 0x0 PUSH2 0x810 PUSH1 0x16 DUP4 PUSH2 0x75D JUMP JUMPDEST SWAP2 POP PUSH2 0x81B DUP3 PUSH2 0x7DA JUMP JUMPDEST PUSH1 0x20 DUP3 ADD SWAP1 POP SWAP2 SWAP1 POP JUMP JUMPDEST PUSH1 0x0 PUSH1 0x20 DUP3 ADD SWAP1 POP DUP2 DUP2 SUB PUSH1 0x0 DUP4 ADD MSTORE PUSH2 0x83F DUP2 PUSH2 0x803 JUMP JUMPDEST SWAP1 POP SWAP2 SWAP1 POP JUMP JUMPDEST PUSH32 0x506C617965727320617265206C657373207468616E2033000000000000000000 PUSH1 0x0 DUP3 ADD MSTORE POP JUMP JUMPDEST PUSH1 0x0 PUSH2 0x87C PUSH1 0x17 DUP4 PUSH2 0x75D JUMP JUMPDEST SWAP2 POP PUSH2 0x887 DUP3 PUSH2 0x846 JUMP JUMPDEST PUSH1 0x20 DUP3 ADD SWAP1 POP SWAP2 SWAP1 POP JUMP JUMPDEST PUSH1 0x0 PUSH1 0x20 DUP3 ADD SWAP1 POP DUP2 DUP2 SUB PUSH1 0x0 DUP4 ADD MSTORE PUSH2 0x8AB DUP2 PUSH2 0x86F JUMP JUMPDEST SWAP1 POP SWAP2 SWAP1 POP JUMP JUMPDEST PUSH32 0x4E487B7100000000000000000000000000000000000000000000000000000000 PUSH1 0x0 MSTORE PUSH1 0x12 PUSH1 0x4 MSTORE PUSH1 0x24 PUSH1 0x0 REVERT JUMPDEST PUSH1 0x0 PUSH2 0x8EC DUP3 PUSH2 0x633 JUMP JUMPDEST SWAP2 POP PUSH2 0x8F7 DUP4 PUSH2 0x633 JUMP JUMPDEST SWAP3 POP DUP3 PUSH2 0x907 JUMPI PUSH2 0x906 PUSH2 0x8B2 JUMP JUMPDEST JUMPDEST DUP3 DUP3 MOD SWAP1 POP SWAP3 SWAP2 POP POP JUMP JUMPDEST PUSH32 0x4E487B7100000000000000000000000000000000000000000000000000000000 PUSH1 0x0 MSTORE PUSH1 0x32 PUSH1 0x4 MSTORE PUSH1 0x24 PUSH1 0x0 REVERT JUMPDEST PUSH32 0x4E487B7100000000000000000000000000000000000000000000000000000000 PUSH1 0x0 MSTORE PUSH1 0x41 PUSH1 0x4 MSTORE PUSH1 0x24 PUSH1 0x0 REVERT JUMPDEST PUSH32 0x506C65617365207061792075702031206574686572206F6E6C79000000000000 PUSH1 0x0 DUP3 ADD MSTORE POP JUMP JUMPDEST PUSH1 0x0 PUSH2 0x9A6 PUSH1 0x1A DUP4 PUSH2 0x75D JUMP JUMPDEST SWAP2 POP PUSH2 0x9B1 DUP3 PUSH2 0x970 JUMP JUMPDEST PUSH1 0x20 DUP3 ADD SWAP1 POP SWAP2 SWAP1 POP JUMP JUMPDEST PUSH1 0x0 PUSH1 0x20 DUP3 ADD SWAP1 POP DUP2 DUP2 SUB PUSH1 0x0 DUP4 ADD MSTORE PUSH2 0x9D5 DUP2 PUSH2 0x999 JUMP JUMPDEST SWAP1 POP SWAP2 SWAP1 POP JUMP JUMPDEST PUSH1 0x0 DUP2 SWAP1 POP SWAP2 SWAP1 POP JUMP JUMPDEST PUSH2 0x9F7 PUSH2 0x9F2 DUP3 PUSH2 0x633 JUMP JUMPDEST PUSH2 0x9DC JUMP JUMPDEST DUP3 MSTORE POP POP JUMP JUMPDEST PUSH1 0x0 PUSH2 0xA09 DUP3 DUP7 PUSH2 0x9E6 JUMP JUMPDEST PUSH1 0x20 DUP3 ADD SWAP2 POP PUSH2 0xA19 DUP3 DUP6 PUSH2 0x9E6 JUMP JUMPDEST PUSH1 0x20 DUP3 ADD SWAP2 POP PUSH2 0xA29 DUP3 DUP5 PUSH2 0x9E6 JUMP JUMPDEST PUSH1 0x20 DUP3 ADD SWAP2 POP DUP2 SWAP1 POP SWAP5 SWAP4 POP POP POP POP JUMP INVALID LOG2 PUSH5 0x6970667358 0x22 SLT KECCAK256 DUP7 0xEC MSIZE ISZERO 0xAD ADDMOD REVERT BYTE INVALID SWAP3 0xC5 PUSH7 0x1682B318341474 MSTORE SWAP3 PUSH26 0xD3F06336D92BBCE2512C64736F6C634300081200330000000000 "
				},
				"gasEstimates": {
					"creation": {
						"codeDepositCost": "534400",
						"executionCost": "24834",
						"totalCost": "559234"
					},
					"external": {
						"getBalance()": "2581",
						"manager()": "2511",
						"participate()": "48764",
						"pickWinner()": "infinite",
						"players(uint256)": "5044",
						"winner()": "2580"
					},
					"internal": {
						"random()": "infinite"
					}
				},
				"methodIdentifiers": {
					"getBalance()": "12065fe0",
					"manager()": "481c6a75",
					"participate()": "d11711a2",
					"pickWinner()": "5d495aea",
					"players(uint256)": "f71d96cb",
					"winner()": "dfbf53ae"
				}
			},
			"storageLayout": {
				"storage": [
					{
						"astId": 3,
						"contract": "Lottery.sol:Lottery",
						"label": "manager",
						"offset": 0,
						"slot": "0",
						"type": "t_address"
					},
					{
						"astId": 6,
						"contract": "Lottery.sol:Lottery",
						"label": "players",
						"offset": 0,
						"slot": "1",
						"type": "t_array(t_address_payable)dyn_storage"
					},
					{
						"astId": 8,
						"contract": "Lottery.sol:Lottery",
						"label": "winner",
						"offset": 0,
						"slot": "2",
						"type": "t_address_payable"
					}
				],
				"types": {
					"t_address": {
						"encoding": "inplace",
						"label": "address",
						"numberOfBytes": "20"
					},
					"t_address_payable": {
						"encoding": "inplace",
						"label": "address payable",
						"numberOfBytes": "20"
					},
					"t_array(t_address_payable)dyn_storage": {
						"base": "t_address_payable",
						"encoding": "dynamic_array",
						"label": "address payable[]",
						"numberOfBytes": "32"
					}
				}
			},
			"userdoc": {
				"kind": "user",
				"methods": {},
				"version": 1
			}
		}
	}
}